{
  "contractName": "Adoption",
  "abi": [
    {
      "inputs": [],
      "payable": false,
      "stateMutability": "nonpayable",
      "type": "constructor"
    },
    {
      "constant": true,
      "inputs": [],
      "name": "count",
      "outputs": [
        {
          "internalType": "uint256",
          "name": "",
          "type": "uint256"
        }
      ],
      "payable": false,
      "stateMutability": "view",
      "type": "function"
    },
    {
      "constant": true,
      "inputs": [
        {
          "internalType": "uint256",
          "name": "",
          "type": "uint256"
        },
        {
          "internalType": "address",
          "name": "",
          "type": "address"
        }
      ],
      "name": "petVotes",
      "outputs": [
        {
          "internalType": "bool",
          "name": "",
          "type": "bool"
        }
      ],
      "payable": false,
      "stateMutability": "view",
      "type": "function"
    },
    {
      "constant": true,
      "inputs": [
        {
          "internalType": "uint256",
          "name": "",
          "type": "uint256"
        }
      ],
      "name": "pets",
      "outputs": [
        {
          "internalType": "uint256",
          "name": "id",
          "type": "uint256"
        },
        {
          "internalType": "string",
          "name": "name",
          "type": "string"
        },
        {
          "internalType": "string",
          "name": "breed",
          "type": "string"
        },
        {
          "internalType": "uint256",
          "name": "age",
          "type": "uint256"
        },
        {
          "internalType": "string",
          "name": "location",
          "type": "string"
        },
        {
          "internalType": "string",
          "name": "picture",
          "type": "string"
        },
        {
          "internalType": "address",
          "name": "status",
          "type": "address"
        },
        {
          "internalType": "uint256",
          "name": "votes",
          "type": "uint256"
        }
      ],
      "payable": false,
      "stateMutability": "view",
      "type": "function"
    },
    {
      "constant": false,
      "inputs": [
        {
          "internalType": "uint256",
          "name": "petId",
          "type": "uint256"
        }
      ],
      "name": "voteForPet",
      "outputs": [],
      "payable": false,
      "stateMutability": "nonpayable",
      "type": "function"
    },
    {
      "constant": false,
      "inputs": [
        {
          "internalType": "uint256",
          "name": "petId",
          "type": "uint256"
        }
      ],
      "name": "adopt",
      "outputs": [
        {
          "internalType": "uint256",
          "name": "",
          "type": "uint256"
        }
      ],
      "payable": false,
      "stateMutability": "nonpayable",
      "type": "function"
    },
    {
      "constant": false,
      "inputs": [
        {
          "internalType": "uint256",
          "name": "petId",
          "type": "uint256"
        }
      ],
      "name": "readopt",
      "outputs": [
        {
          "internalType": "uint256",
          "name": "",
          "type": "uint256"
        }
      ],
      "payable": false,
      "stateMutability": "nonpayable",
      "type": "function"
    },
    {
      "constant": false,
      "inputs": [
        {
          "internalType": "string",
          "name": "name",
          "type": "string"
        },
        {
          "internalType": "string",
          "name": "breed",
          "type": "string"
        },
        {
          "internalType": "uint256",
          "name": "age",
          "type": "uint256"
        },
        {
          "internalType": "string",
          "name": "location",
          "type": "string"
        },
        {
          "internalType": "string",
          "name": "image",
          "type": "string"
        }
      ],
      "name": "register",
      "outputs": [],
      "payable": false,
      "stateMutability": "nonpayable",
      "type": "function"
    },
    {
      "constant": false,
      "inputs": [
        {
          "internalType": "uint256",
          "name": "petId",
          "type": "uint256"
        }
      ],
      "name": "deletePet",
      "outputs": [],
      "payable": false,
      "stateMutability": "nonpayable",
      "type": "function"
    },
    {
      "constant": true,
      "inputs": [
        {
          "internalType": "uint256",
          "name": "petId",
          "type": "uint256"
        }
      ],
      "name": "getPetDetails",
      "outputs": [
        {
          "components": [
            {
              "internalType": "uint256",
              "name": "id",
              "type": "uint256"
            },
            {
              "internalType": "string",
              "name": "name",
              "type": "string"
            },
            {
              "internalType": "string",
              "name": "breed",
              "type": "string"
            },
            {
              "internalType": "uint256",
              "name": "age",
              "type": "uint256"
            },
            {
              "internalType": "string",
              "name": "location",
              "type": "string"
            },
            {
              "internalType": "string",
              "name": "picture",
              "type": "string"
            },
            {
              "internalType": "address",
              "name": "status",
              "type": "address"
            },
            {
              "internalType": "uint256",
              "name": "votes",
              "type": "uint256"
            }
          ],
          "internalType": "struct Adoption.Pet",
          "name": "",
          "type": "tuple"
        }
      ],
      "payable": false,
      "stateMutability": "view",
      "type": "function"
    },
    {
      "constant": false,
      "inputs": [
        {
          "internalType": "uint256",
          "name": "petId",
          "type": "uint256"
        },
        {
          "internalType": "string",
          "name": "name",
          "type": "string"
        },
        {
          "internalType": "string",
          "name": "breed",
          "type": "string"
        },
        {
          "internalType": "uint256",
          "name": "age",
          "type": "uint256"
        },
        {
          "internalType": "string",
          "name": "location",
          "type": "string"
        },
        {
          "internalType": "string",
          "name": "image",
          "type": "string"
        },
        {
          "internalType": "uint256",
          "name": "votecount",
          "type": "uint256"
        }
      ],
      "name": "updatePetDetails",
      "outputs": [],
      "payable": false,
      "stateMutability": "nonpayable",
      "type": "function"
    }
  ],
  "bytecode": "0x60806040523480156200001157600080fd5b50600080905060106002819055506001604051806101000160405280600081526020016040518060400160405280600681526020017f467269656461000000000000000000000000000000000000000000000000000081525081526020016040518060400160405280601081526020017f53636f74746973682054657272696572000000000000000000000000000000008152508152602001600381526020016040518060400160405280600e81526020017f4c6973636f2c20416c6162616d6100000000000000000000000000000000000081525081526020016040518060400160405280601c81526020017f696d616765732f73636f74746973682d746572726965722e6a7065670000000081525081526020018373ffffffffffffffffffffffffffffffffffffffff1681526020016000815250908060018154018082558091505090600182039060005260206000209060080201600090919290919091506000820151816000015560208201518160010190805190602001906200019b929190620023a6565b506040820151816002019080519060200190620001ba929190620023a6565b50606082015181600301556080820151816004019080519060200190620001e3929190620023a6565b5060a082015181600501908051906020019062000202929190620023a6565b5060c08201518160060160006101000a81548173ffffffffffffffffffffffffffffffffffffffff021916908373ffffffffffffffffffffffffffffffffffffffff16021790555060e082015181600701555050506001604051806101000160405280600181526020016040518060400160405280600481526020017f47696e610000000000000000000000000000000000000000000000000000000081525081526020016040518060400160405280601081526020017f53636f74746973682054657272696572000000000000000000000000000000008152508152602001600381526020016040518060400160405280601981526020017f546f6f6c6576696c6c652c20576573742056697267696e69610000000000000081525081526020016040518060400160405280601c81526020017f696d616765732f73636f74746973682d746572726965722e6a7065670000000081525081526020018373ffffffffffffffffffffffffffffffffffffffff168152602001600081525090806001815401808255809150509060018203906000526020600020906008020160009091929091909150600082015181600001556020820151816001019080519060200190620003d3929190620023a6565b506040820151816002019080519060200190620003f2929190620023a6565b506060820151816003015560808201518160040190805190602001906200041b929190620023a6565b5060a08201518160050190805190602001906200043a929190620023a6565b5060c08201518160060160006101000a81548173ffffffffffffffffffffffffffffffffffffffff021916908373ffffffffffffffffffffffffffffffffffffffff16021790555060e082015181600701555050506001604051806101000160405280600281526020016040518060400160405280600781526020017f436f6c6c696e730000000000000000000000000000000000000000000000000081525081526020016040518060400160405280600e81526020017f4672656e63682042756c6c646f670000000000000000000000000000000000008152508152602001600281526020016040518060400160405280600f81526020017f467265656275726e2c20496461686f000000000000000000000000000000000081525081526020016040518060400160405280601a81526020017f696d616765732f6672656e63682d62756c6c646f672e6a70656700000000000081525081526020018373ffffffffffffffffffffffffffffffffffffffff1681526020016000815250908060018154018082558091505090600182039060005260206000209060080201600090919290919091506000820151816000015560208201518160010190805190602001906200060b929190620023a6565b5060408201518160020190805190602001906200062a929190620023a6565b5060608201518160030155608082015181600401908051906020019062000653929190620023a6565b5060a082015181600501908051906020019062000672929190620023a6565b5060c08201518160060160006101000a81548173ffffffffffffffffffffffffffffffffffffffff021916908373ffffffffffffffffffffffffffffffffffffffff16021790555060e082015181600701555050506001604051806101000160405280600381526020016040518060400160405280600781526020017f4d656c697373610000000000000000000000000000000000000000000000000081525081526020016040518060400160405280600581526020017f426f7865720000000000000000000000000000000000000000000000000000008152508152602001600281526020016040518060400160405280601381526020017f43616d61732c2050656e6e73796c76616e69610000000000000000000000000081525081526020016040518060400160405280601181526020017f696d616765732f626f7865722e6a70656700000000000000000000000000000081525081526020018373ffffffffffffffffffffffffffffffffffffffff16815260200160008152509080600181540180825580915050906001820390600052602060002090600802016000909192909190915060008201518160000155602082015181600101908051906020019062000843929190620023a6565b50604082015181600201908051906020019062000862929190620023a6565b506060820151816003015560808201518160040190805190602001906200088b929190620023a6565b5060a0820151816005019080519060200190620008aa929190620023a6565b5060c08201518160060160006101000a81548173ffffffffffffffffffffffffffffffffffffffff021916908373ffffffffffffffffffffffffffffffffffffffff16021790555060e082015181600701555050506001604051806101000160405280600481526020016040518060400160405280600781526020017f4a65616e696e650000000000000000000000000000000000000000000000000081525081526020016040518060400160405280600e81526020017f4672656e63682042756c6c646f670000000000000000000000000000000000008152508152602001600281526020016040518060400160405280601481526020017f4765726265722c20536f7574682044616b6f746100000000000000000000000081525081526020016040518060400160405280601a81526020017f696d616765732f6672656e63682d62756c6c646f672e6a70656700000000000081525081526020018373ffffffffffffffffffffffffffffffffffffffff16815260200160008152509080600181540180825580915050906001820390600052602060002090600802016000909192909190915060008201518160000155602082015181600101908051906020019062000a7b929190620023a6565b50604082015181600201908051906020019062000a9a929190620023a6565b5060608201518160030155608082015181600401908051906020019062000ac3929190620023a6565b5060a082015181600501908051906020019062000ae2929190620023a6565b5060c08201518160060160006101000a81548173ffffffffffffffffffffffffffffffffffffffff021916908373ffffffffffffffffffffffffffffffffffffffff16021790555060e082015181600701555050506001604051806101000160405280600581526020016040518060400160405280600581526020017f456c76696100000000000000000000000000000000000000000000000000000081525081526020016040518060400160405280600e81526020017f4672656e63682042756c6c646f670000000000000000000000000000000000008152508152602001600381526020016040518060400160405280601381526020017f496e6e7362726f6f6b2c20496c6c696e6f69730000000000000000000000000081525081526020016040518060400160405280601a81526020017f696d616765732f6672656e63682d62756c6c646f672e6a70656700000000000081525081526020018373ffffffffffffffffffffffffffffffffffffffff16815260200160008152509080600181540180825580915050906001820390600052602060002090600802016000909192909190915060008201518160000155602082015181600101908051906020019062000cb3929190620023a6565b50604082015181600201908051906020019062000cd2929190620023a6565b5060608201518160030155608082015181600401908051906020019062000cfb929190620023a6565b5060a082015181600501908051906020019062000d1a929190620023a6565b5060c08201518160060160006101000a81548173ffffffffffffffffffffffffffffffffffffffff021916908373ffffffffffffffffffffffffffffffffffffffff16021790555060e082015181600701555050506001604051806101000160405280600681526020016040518060400160405280600781526020017f4c6174697368610000000000000000000000000000000000000000000000000081525081526020016040518060400160405280601081526020017f476f6c64656e20526574726965766572000000000000000000000000000000008152508152602001600381526020016040518060400160405280601181526020017f536f7564616e2c204c6f75697369616e6100000000000000000000000000000081525081526020016040518060400160405280601c81526020017f696d616765732f676f6c64656e2d7265747269657665722e6a7065670000000081525081526020018373ffffffffffffffffffffffffffffffffffffffff16815260200160008152509080600181540180825580915050906001820390600052602060002090600802016000909192909190915060008201518160000155602082015181600101908051906020019062000eeb929190620023a6565b50604082015181600201908051906020019062000f0a929190620023a6565b5060608201518160030155608082015181600401908051906020019062000f33929190620023a6565b5060a082015181600501908051906020019062000f52929190620023a6565b5060c08201518160060160006101000a81548173ffffffffffffffffffffffffffffffffffffffff021916908373ffffffffffffffffffffffffffffffffffffffff16021790555060e082015181600701555050506001604051806101000160405280600781526020016040518060400160405280600781526020017f436f6c656d616e0000000000000000000000000000000000000000000000000081525081526020016040518060400160405280601081526020017f476f6c64656e20526574726965766572000000000000000000000000000000008152508152602001600381526020016040518060400160405280601281526020017f4a61636b736f6e77616c642c2050616c6175000000000000000000000000000081525081526020016040518060400160405280601c81526020017f696d616765732f676f6c64656e2d7265747269657665722e6a7065670000000081525081526020018373ffffffffffffffffffffffffffffffffffffffff16815260200160008152509080600181540180825580915050906001820390600052602060002090600802016000909192909190915060008201518160000155602082015181600101908051906020019062001123929190620023a6565b50604082015181600201908051906020019062001142929190620023a6565b506060820151816003015560808201518160040190805190602001906200116b929190620023a6565b5060a08201518160050190805190602001906200118a929190620023a6565b5060c08201518160060160006101000a81548173ffffffffffffffffffffffffffffffffffffffff021916908373ffffffffffffffffffffffffffffffffffffffff16021790555060e082015181600701555050506001604051806101000160405280600881526020016040518060400160405280600781526020017f4e6963686f6c650000000000000000000000000000000000000000000000000081525081526020016040518060400160405280600e81526020017f4672656e63682042756c6c646f670000000000000000000000000000000000008152508152602001600281526020016040518060400160405280601081526020017f486f6e6f6c756c752c204861776169690000000000000000000000000000000081525081526020016040518060400160405280601a81526020017f696d616765732f6672656e63682d62756c6c646f672e6a70656700000000000081525081526020018373ffffffffffffffffffffffffffffffffffffffff1681526020016000815250908060018154018082558091505090600182039060005260206000209060080201600090919290919091506000820151816000015560208201518160010190805190602001906200135b929190620023a6565b5060408201518160020190805190602001906200137a929190620023a6565b50606082015181600301556080820151816004019080519060200190620013a3929190620023a6565b5060a0820151816005019080519060200190620013c2929190620023a6565b5060c08201518160060160006101000a81548173ffffffffffffffffffffffffffffffffffffffff021916908373ffffffffffffffffffffffffffffffffffffffff16021790555060e082015181600701555050506001604051806101000160405280600981526020016040518060400160405280600481526020017f4672616e0000000000000000000000000000000000000000000000000000000081525081526020016040518060400160405280600581526020017f426f7865720000000000000000000000000000000000000000000000000000008152508152602001600381526020016040518060400160405280600d81526020017f4d617468656e792c20557461680000000000000000000000000000000000000081525081526020016040518060400160405280601181526020017f696d616765732f626f7865722e6a70656700000000000000000000000000000081525081526020018373ffffffffffffffffffffffffffffffffffffffff16815260200160008152509080600181540180825580915050906001820390600052602060002090600802016000909192909190915060008201518160000155602082015181600101908051906020019062001593929190620023a6565b506040820151816002019080519060200190620015b2929190620023a6565b50606082015181600301556080820151816004019080519060200190620015db929190620023a6565b5060a0820151816005019080519060200190620015fa929190620023a6565b5060c08201518160060160006101000a81548173ffffffffffffffffffffffffffffffffffffffff021916908373ffffffffffffffffffffffffffffffffffffffff16021790555060e082015181600701555050506001604051806101000160405280600a81526020016040518060400160405280600681526020017f4c656f6e6f72000000000000000000000000000000000000000000000000000081525081526020016040518060400160405280600581526020017f426f7865720000000000000000000000000000000000000000000000000000008152508152602001600281526020016040518060400160405280600e81526020017f54796865652c20496e6469616e6100000000000000000000000000000000000081525081526020016040518060400160405280601181526020017f696d616765732f626f7865722e6a70656700000000000000000000000000000081525081526020018373ffffffffffffffffffffffffffffffffffffffff168152602001600081525090806001815401808255809150509060018203906000526020600020906008020160009091929091909150600082015181600001556020820151816001019080519060200190620017cb929190620023a6565b506040820151816002019080519060200190620017ea929190620023a6565b5060608201518160030155608082015181600401908051906020019062001813929190620023a6565b5060a082015181600501908051906020019062001832929190620023a6565b5060c08201518160060160006101000a81548173ffffffffffffffffffffffffffffffffffffffff021916908373ffffffffffffffffffffffffffffffffffffffff16021790555060e082015181600701555050506001604051806101000160405280600b81526020016040518060400160405280600481526020017f4465616e0000000000000000000000000000000000000000000000000000000081525081526020016040518060400160405280601081526020017f53636f74746973682054657272696572000000000000000000000000000000008152508152602001600381526020016040518060400160405280601081526020017f57696e64736f722c204d6f6e74616e610000000000000000000000000000000081525081526020016040518060400160405280601c81526020017f696d616765732f73636f74746973682d746572726965722e6a7065670000000081525081526020018373ffffffffffffffffffffffffffffffffffffffff16815260200160008152509080600181540180825580915050906001820390600052602060002090600802016000909192909190915060008201518160000155602082015181600101908051906020019062001a03929190620023a6565b50604082015181600201908051906020019062001a22929190620023a6565b5060608201518160030155608082015181600401908051906020019062001a4b929190620023a6565b5060a082015181600501908051906020019062001a6a929190620023a6565b5060c08201518160060160006101000a81548173ffffffffffffffffffffffffffffffffffffffff021916908373ffffffffffffffffffffffffffffffffffffffff16021790555060e082015181600701555050506001604051806101000160405280600c81526020016040518060400160405280600981526020017f53746576656e736f6e000000000000000000000000000000000000000000000081525081526020016040518060400160405280600e81526020017f4672656e63682042756c6c646f670000000000000000000000000000000000008152508152602001600381526020016040518060400160405280601281526020017f4b696e6773746f776e652c204e6576616461000000000000000000000000000081525081526020016040518060400160405280601a81526020017f696d616765732f6672656e63682d62756c6c646f672e6a70656700000000000081525081526020018373ffffffffffffffffffffffffffffffffffffffff16815260200160008152509080600181540180825580915050906001820390600052602060002090600802016000909192909190915060008201518160000155602082015181600101908051906020019062001c3b929190620023a6565b50604082015181600201908051906020019062001c5a929190620023a6565b5060608201518160030155608082015181600401908051906020019062001c83929190620023a6565b5060a082015181600501908051906020019062001ca2929190620023a6565b5060c08201518160060160006101000a81548173ffffffffffffffffffffffffffffffffffffffff021916908373ffffffffffffffffffffffffffffffffffffffff16021790555060e082015181600701555050506001604051806101000160405280600d81526020016040518060400160405280600881526020017f4b72697374696e6100000000000000000000000000000000000000000000000081525081526020016040518060400160405280601081526020017f476f6c64656e20526574726965766572000000000000000000000000000000008152508152602001600481526020016040518060400160405280601681526020017f53756c74616e612c204d6173736163687573657474730000000000000000000081525081526020016040518060400160405280601c81526020017f696d616765732f676f6c64656e2d7265747269657665722e6a7065670000000081525081526020018373ffffffffffffffffffffffffffffffffffffffff16815260200160008152509080600181540180825580915050906001820390600052602060002090600802016000909192909190915060008201518160000155602082015181600101908051906020019062001e73929190620023a6565b50604082015181600201908051906020019062001e92929190620023a6565b5060608201518160030155608082015181600401908051906020019062001ebb929190620023a6565b5060a082015181600501908051906020019062001eda929190620023a6565b5060c08201518160060160006101000a81548173ffffffffffffffffffffffffffffffffffffffff021916908373ffffffffffffffffffffffffffffffffffffffff16021790555060e082015181600701555050506001604051806101000160405280600e81526020016040518060400160405280600581526020017f457468656c00000000000000000000000000000000000000000000000000000081525081526020016040518060400160405280601081526020017f476f6c64656e20526574726965766572000000000000000000000000000000008152508152602001600281526020016040518060400160405280601281526020017f42726f61646c616e64732c204f7265676f6e000000000000000000000000000081525081526020016040518060400160405280601c81526020017f696d616765732f676f6c64656e2d7265747269657665722e6a7065670000000081525081526020018373ffffffffffffffffffffffffffffffffffffffff168152602001600081525090806001815401808255809150509060018203906000526020600020906008020160009091929091909150600082015181600001556020820151816001019080519060200190620020ab929190620023a6565b506040820151816002019080519060200190620020ca929190620023a6565b50606082015181600301556080820151816004019080519060200190620020f3929190620023a6565b5060a082015181600501908051906020019062002112929190620023a6565b5060c08201518160060160006101000a81548173ffffffffffffffffffffffffffffffffffffffff021916908373ffffffffffffffffffffffffffffffffffffffff16021790555060e082015181600701555050506001604051806101000160405280600f81526020016040518060400160405280600581526020017f546572727900000000000000000000000000000000000000000000000000000081525081526020016040518060400160405280601081526020017f476f6c64656e20526574726965766572000000000000000000000000000000008152508152602001600281526020016040518060400160405280600f81526020017f4461776e2c20576973636f6e73696e000000000000000000000000000000000081525081526020016040518060400160405280601c81526020017f696d616765732f676f6c64656e2d7265747269657665722e6a7065670000000081525081526020018373ffffffffffffffffffffffffffffffffffffffff168152602001600081525090806001815401808255809150509060018203906000526020600020906008020160009091929091909150600082015181600001556020820151816001019080519060200190620022e3929190620023a6565b50604082015181600201908051906020019062002302929190620023a6565b506060820151816003015560808201518160040190805190602001906200232b929190620023a6565b5060a08201518160050190805190602001906200234a929190620023a6565b5060c08201518160060160006101000a81548173ffffffffffffffffffffffffffffffffffffffff021916908373ffffffffffffffffffffffffffffffffffffffff16021790555060e082015181600701555050505062002455565b828054600181600116156101000203166002900490600052602060002090601f016020900481019282601f10620023e957805160ff19168380011785556200241a565b828001600101855582156200241a579182015b8281111562002419578251825591602001919060010190620023fc565b5b5090506200242991906200242d565b5090565b6200245291905b808211156200244e57600081600090555060010162002434565b5090565b90565b611b4580620024656000396000f3fe608060405234801561001057600080fd5b506004361061009e5760003560e01c8063c1c2790311610066578063c1c2790314610159578063cfb869bf14610189578063d749e429146101c0578063d89fd4b4146101dc578063dd22d0c51461020c5761009e565b806306661abd146100a357806314c1ef92146100c1578063305ed427146100dd5780638499cfe31461010d5780638588b2c514610129575b600080fd5b6100ab610228565b6040516100b891906118fe565b60405180910390f35b6100db60048036036100d6919081019061155b565b61022e565b005b6100f760048036036100f2919081019061151f565b610364565b6040516101049190611881565b60405180910390f35b6101276004803603610122919081019061141f565b610393565b005b610143600480360361013e91908101906114f6565b610508565b60405161015091906118fe565b60405180910390f35b610173600480360361016e91908101906114f6565b610600565b60405161018091906118fe565b60405180910390f35b6101a3600480360361019e91908101906114f6565b6106f8565b6040516101b7989796959493929190611919565b60405180910390f35b6101da60048036036101d591908101906114f6565b6109cd565b005b6101f660048036036101f191908101906114f6565b610c80565b60405161020391906118dc565b60405180910390f35b610226600480360361022191908101906114f6565b610fcd565b005b60025481565b60008710158015610240575060025487105b61024957600080fd5b856001888154811061025757fe5b9060005260206000209060080201600101908051906020019061027b929190611152565b50846001888154811061028a57fe5b906000526020600020906008020160020190805190602001906102ae929190611152565b5083600188815481106102bd57fe5b90600052602060002090600802016003018190555082600188815481106102e057fe5b90600052602060002090600802016004019080519060200190610304929190611152565b50816001888154811061031357fe5b90600052602060002090600802016005019080519060200190610337929190611152565b50806001888154811061034657fe5b90600052602060002090600802016007018190555050505050505050565b60006020528160005260406000206020528060005260406000206000915091509054906101000a900460ff1681565b6000809050600160405180610100016040528060025481526020018881526020018781526020018681526020018581526020018481526020018373ffffffffffffffffffffffffffffffffffffffff16815260200160008152509080600181540180825580915050906001820390600052602060002090600802016000909192909190915060008201518160000155602082015181600101908051906020019061043e9291906111d2565b50604082015181600201908051906020019061045b9291906111d2565b506060820151816003015560808201518160040190805190602001906104829291906111d2565b5060a082015181600501908051906020019061049f9291906111d2565b5060c08201518160060160006101000a81548173ffffffffffffffffffffffffffffffffffffffff021916908373ffffffffffffffffffffffffffffffffffffffff16021790555060e08201518160070155505050600160025401600281905550505050505050565b600080821015801561051b575060025482105b61052457600080fd5b600073ffffffffffffffffffffffffffffffffffffffff166001838154811061054957fe5b906000526020600020906008020160060160009054906101000a900473ffffffffffffffffffffffffffffffffffffffff1673ffffffffffffffffffffffffffffffffffffffff161461059b57600080fd5b33600183815481106105a957fe5b906000526020600020906008020160060160006101000a81548173ffffffffffffffffffffffffffffffffffffffff021916908373ffffffffffffffffffffffffffffffffffffffff160217905550819050919050565b6000808210158015610613575060025482105b61061c57600080fd5b3373ffffffffffffffffffffffffffffffffffffffff166001838154811061064057fe5b906000526020600020906008020160060160009054906101000a900473ffffffffffffffffffffffffffffffffffffffff1673ffffffffffffffffffffffffffffffffffffffff161461069257600080fd5b6000600183815481106106a157fe5b906000526020600020906008020160060160006101000a81548173ffffffffffffffffffffffffffffffffffffffff021916908373ffffffffffffffffffffffffffffffffffffffff160217905550819050919050565b6001818154811061070557fe5b9060005260206000209060080201600091509050806000015490806001018054600181600116156101000203166002900480601f0160208091040260200160405190810160405280929190818152602001828054600181600116156101000203166002900480156107b75780601f1061078c576101008083540402835291602001916107b7565b820191906000526020600020905b81548152906001019060200180831161079a57829003601f168201915b505050505090806002018054600181600116156101000203166002900480601f0160208091040260200160405190810160405280929190818152602001828054600181600116156101000203166002900480156108555780601f1061082a57610100808354040283529160200191610855565b820191906000526020600020905b81548152906001019060200180831161083857829003601f168201915b505050505090806003015490806004018054600181600116156101000203166002900480601f0160208091040260200160405190810160405280929190818152602001828054600181600116156101000203166002900480156108f95780601f106108ce576101008083540402835291602001916108f9565b820191906000526020600020905b8154815290600101906020018083116108dc57829003601f168201915b505050505090806005018054600181600116156101000203166002900480601f0160208091040260200160405190810160405280929190818152602001828054600181600116156101000203166002900480156109975780601f1061096c57610100808354040283529160200191610997565b820191906000526020600020905b81548152906001019060200180831161097a57829003601f168201915b5050505050908060060160009054906101000a900473ffffffffffffffffffffffffffffffffffffffff16908060070154905088565b600081101580156109df575060025481105b6109e857600080fd5b600073ffffffffffffffffffffffffffffffffffffffff1660018281548110610a0d57fe5b906000526020600020906008020160060160009054906101000a900473ffffffffffffffffffffffffffffffffffffffff1673ffffffffffffffffffffffffffffffffffffffff1614610a5f57600080fd5b6001600254038114610bce576001806002540381548110610a7c57fe5b906000526020600020906008020160018281548110610a9757fe5b90600052602060002090600802016000820154816000015560018201816001019080546001816001161561010002031660029004610ad6929190611252565b5060028201816002019080546001816001161561010002031660029004610afe929190611252565b506003820154816003015560048201816004019080546001816001161561010002031660029004610b30929190611252565b5060058201816005019080546001816001161561010002031660029004610b58929190611252565b506006820160009054906101000a900473ffffffffffffffffffffffffffffffffffffffff168160060160006101000a81548173ffffffffffffffffffffffffffffffffffffffff021916908373ffffffffffffffffffffffffffffffffffffffff160217905550600782015481600701559050505b6001805480610bd957fe5b6001900381819060005260206000209060080201600080820160009055600182016000610c0691906112d9565b600282016000610c1691906112d9565b6003820160009055600482016000610c2e91906112d9565b600582016000610c3e91906112d9565b6006820160006101000a81549073ffffffffffffffffffffffffffffffffffffffff021916905560078201600090555050905560016002540360028190555050565b610c88611321565b60008210158015610c9a575060025482105b610ca357600080fd5b60018281548110610cb057fe5b90600052602060002090600802016040518061010001604052908160008201548152602001600182018054600181600116156101000203166002900480601f016020809104026020016040519081016040528092919081815260200182805460018160011615610100020316600290048015610d6d5780601f10610d4257610100808354040283529160200191610d6d565b820191906000526020600020905b815481529060010190602001808311610d5057829003601f168201915b50505050508152602001600282018054600181600116156101000203166002900480601f016020809104026020016040519081016040528092919081815260200182805460018160011615610100020316600290048015610e0f5780601f10610de457610100808354040283529160200191610e0f565b820191906000526020600020905b815481529060010190602001808311610df257829003601f168201915b5050505050815260200160038201548152602001600482018054600181600116156101000203166002900480601f016020809104026020016040519081016040528092919081815260200182805460018160011615610100020316600290048015610ebb5780601f10610e9057610100808354040283529160200191610ebb565b820191906000526020600020905b815481529060010190602001808311610e9e57829003601f168201915b50505050508152602001600582018054600181600116156101000203166002900480601f016020809104026020016040519081016040528092919081815260200182805460018160011615610100020316600290048015610f5d5780601f10610f3257610100808354040283529160200191610f5d565b820191906000526020600020905b815481529060010190602001808311610f4057829003601f168201915b505050505081526020016006820160009054906101000a900473ffffffffffffffffffffffffffffffffffffffff1673ffffffffffffffffffffffffffffffffffffffff1673ffffffffffffffffffffffffffffffffffffffff1681526020016007820154815250509050919050565b60008110158015610fdf575060025481105b61101e576040517f08c379a00000000000000000000000000000000000000000000000000000000081526004016110159061189c565b60405180910390fd5b60008082815260200190815260200160002060003373ffffffffffffffffffffffffffffffffffffffff1673ffffffffffffffffffffffffffffffffffffffff16815260200190815260200160002060009054906101000a900460ff16156110bb576040517f08c379a00000000000000000000000000000000000000000000000000000000081526004016110b2906118bc565b60405180910390fd5b60018082815481106110c957fe5b906000526020600020906008020160070160008282540192505081905550600160008083815260200190815260200160002060003373ffffffffffffffffffffffffffffffffffffffff1673ffffffffffffffffffffffffffffffffffffffff16815260200190815260200160002060006101000a81548160ff02191690831515021790555050565b828054600181600116156101000203166002900490600052602060002090601f016020900481019282601f1061119357805160ff19168380011785556111c1565b828001600101855582156111c1579182015b828111156111c05782518255916020019190600101906111a5565b5b5090506111ce919061137c565b5090565b828054600181600116156101000203166002900490600052602060002090601f016020900481019282601f1061121357805160ff1916838001178555611241565b82800160010185558215611241579182015b82811115611240578251825591602001919060010190611225565b5b50905061124e919061137c565b5090565b828054600181600116156101000203166002900490600052602060002090601f016020900481019282601f1061128b57805485556112c8565b828001600101855582156112c857600052602060002091601f016020900482015b828111156112c75782548255916001019190600101906112ac565b5b5090506112d5919061137c565b5090565b50805460018160011615610100020316600290046000825580601f106112ff575061131e565b601f01602090049060005260206000209081019061131d919061137c565b5b50565b604051806101000160405280600081526020016060815260200160608152602001600081526020016060815260200160608152602001600073ffffffffffffffffffffffffffffffffffffffff168152602001600081525090565b61139e91905b8082111561139a576000816000905550600101611382565b5090565b90565b6000813590506113b081611ad4565b92915050565b600082601f8301126113c757600080fd5b81356113da6113d5826119e0565b6119b3565b915080825260208301602083018583830111156113f657600080fd5b611401838284611a81565b50505092915050565b60008135905061141981611aeb565b92915050565b600080600080600060a0868803121561143757600080fd5b600086013567ffffffffffffffff81111561145157600080fd5b61145d888289016113b6565b955050602086013567ffffffffffffffff81111561147a57600080fd5b611486888289016113b6565b94505060406114978882890161140a565b935050606086013567ffffffffffffffff8111156114b457600080fd5b6114c0888289016113b6565b925050608086013567ffffffffffffffff8111156114dd57600080fd5b6114e9888289016113b6565b9150509295509295909350565b60006020828403121561150857600080fd5b60006115168482850161140a565b91505092915050565b6000806040838503121561153257600080fd5b60006115408582860161140a565b9250506020611551858286016113a1565b9150509250929050565b600080600080600080600060e0888a03121561157657600080fd5b60006115848a828b0161140a565b975050602088013567ffffffffffffffff8111156115a157600080fd5b6115ad8a828b016113b6565b965050604088013567ffffffffffffffff8111156115ca57600080fd5b6115d68a828b016113b6565b95505060606115e78a828b0161140a565b945050608088013567ffffffffffffffff81111561160457600080fd5b6116108a828b016113b6565b93505060a088013567ffffffffffffffff81111561162d57600080fd5b6116398a828b016113b6565b92505060c061164a8a828b0161140a565b91505092959891949750929550565b61166281611a39565b82525050565b61167181611a39565b82525050565b61168081611a4b565b82525050565b600061169182611a0c565b61169b8185611a17565b93506116ab818560208601611a90565b6116b481611ac3565b840191505092915050565b60006116ca82611a0c565b6116d48185611a28565b93506116e4818560208601611a90565b6116ed81611ac3565b840191505092915050565b6000611705600f83611a28565b91507f496e76616c6964207065742049442e00000000000000000000000000000000006000830152602082019050919050565b6000611745602483611a28565b91507f596f75206861766520616c726561647920766f74656420666f7220746869732060008301527f7065742e000000000000000000000000000000000000000000000000000000006020830152604082019050919050565b6000610100830160008301516117b76000860182611863565b50602083015184820360208601526117cf8282611686565b915050604083015184820360408601526117e98282611686565b91505060608301516117fe6060860182611863565b50608083015184820360808601526118168282611686565b91505060a083015184820360a08601526118308282611686565b91505060c083015161184560c0860182611659565b5060e083015161185860e0860182611863565b508091505092915050565b61186c81611a77565b82525050565b61187b81611a77565b82525050565b60006020820190506118966000830184611677565b92915050565b600060208201905081810360008301526118b5816116f8565b9050919050565b600060208201905081810360008301526118d581611738565b9050919050565b600060208201905081810360008301526118f6818461179e565b905092915050565b60006020820190506119136000830184611872565b92915050565b60006101008201905061192f600083018b611872565b8181036020830152611941818a6116bf565b9050818103604083015261195581896116bf565b90506119646060830188611872565b818103608083015261197681876116bf565b905081810360a083015261198a81866116bf565b905061199960c0830185611668565b6119a660e0830184611872565b9998505050505050505050565b6000604051905081810181811067ffffffffffffffff821117156119d657600080fd5b8060405250919050565b600067ffffffffffffffff8211156119f757600080fd5b601f19601f8301169050602081019050919050565b600081519050919050565b600082825260208201905092915050565b600082825260208201905092915050565b6000611a4482611a57565b9050919050565b60008115159050919050565b600073ffffffffffffffffffffffffffffffffffffffff82169050919050565b6000819050919050565b82818337600083830152505050565b60005b83811015611aae578082015181840152602081019050611a93565b83811115611abd576000848401525b50505050565b6000601f19601f8301169050919050565b611add81611a39565b8114611ae857600080fd5b50565b611af481611a77565b8114611aff57600080fd5b5056fea365627a7a723158207c4fdf4388d8709829dab65b67122255cbddeda134e35de9f61cf44daea4d1406c6578706572696d656e74616cf564736f6c63430005110040",
  "source": "pragma solidity ^0.5.0;\r\npragma experimental ABIEncoderV2;  // This is for returning structs directly.\r\n\r\n// Contract for handling pet adoptions.\r\ncontract Adoption {\r\n\r\n    // Define a Pet with various attributes.\r\n    struct Pet {\r\n        uint id;           // Unique ID for the pet.\r\n        string name;       // Name of the pet.\r\n        string breed;      // Breed of the pet.\r\n        uint age;          // Age of the pet.\r\n        string location;   // Location of the pet.\r\n        string picture;    // URL or location for the pet's picture.\r\n        address status;    // Address of the owner. '0' address means it's available for adoption.\r\n        uint votes;      // Number of votes (or likes) the pet has received.\r\n    }\r\n\r\n    mapping(uint => mapping(address => bool)) public petVotes;\r\n\r\n    // Dynamic array of all the pets.\r\n    Pet[] public pets;\r\n\r\n    // Counter to keep track of total number of pets.\r\n    uint public count;\r\n\r\n    // Function to cast a vote (or like) for a pet\r\n    function voteForPet(uint petId) public {\r\n        require(petId >= 0 && petId < count, \"Invalid pet ID.\");           // Check if petId is valid.\r\n        require(!petVotes[petId][msg.sender], \"You have already voted for this pet.\");  // Ensure the user hasn't already voted for this pet.\r\n\r\n        pets[petId].votes += 1;              // Increment the vote (or like) count for the pet.\r\n        petVotes[petId][msg.sender] = true;  // Mark that this user has voted for this pet.\r\n    }\r\n\r\n\r\n    // Function for a user to adopt a pet.\r\n    function adopt(uint petId) public returns (uint) {\r\n        require(petId >= 0 && petId < count);                 // Check if petId is valid.\r\n        require(pets[petId].status == address(0));           // Ensure the pet isn't already adopted.\r\n        pets[petId].status = msg.sender;                     // Set the pet's status to the adopter's address.\r\n        return petId;\r\n    }\r\n\r\n    // Function for an owner to return the pet.\r\n    function readopt(uint petId) public returns (uint) {\r\n        require(petId >= 0 && petId < count);                 // Check if petId is valid.\r\n        require(pets[petId].status == msg.sender);           // Ensure the sender is the pet's owner.\r\n        pets[petId].status = address(0);                     // Reset the pet's status to available.\r\n        return petId;\r\n    }\r\n\r\n    // Function to register a new pet.\r\n    function register(string memory name, string memory breed, uint age, string memory location, string memory image) public {\r\n        address default_address = address(0);                // The default address (no owner).\r\n        pets.push(Pet(count, name, breed, age, location, image, default_address, 0));  // Add the pet to the pets array.\r\n        count = count + 1;                                  // Increment the pets counter.\r\n    }\r\n\r\n    // Function to delete a pet.\r\n    function deletePet(uint petId) public {\r\n        require(petId >= 0 && petId < count);                // Check if petId is valid.\r\n        require(pets[petId].status == address(0));          // Ensure the pet isn't adopted.\r\n\r\n        // If it's not the last pet, move the last pet to the deleted pet's location.\r\n        if (petId != count - 1) {\r\n            pets[petId] = pets[count-1];\r\n        }\r\n\r\n        // Remove the last pet from the array (it's now a duplicate or it's the pet to be deleted).\r\n        pets.pop();\r\n        count = count - 1;                                  // Decrement the pets counter.\r\n    }\r\n\r\n//get all pets information\r\n    function getPetDetails(uint petId) public view returns (Pet memory) {\r\n    require(petId >= 0 && petId < count);\r\n    return pets[petId];\r\n}\r\n\r\n    // Function to update pet details.\r\n    function updatePetDetails(uint petId, string memory name, string memory breed, uint age, string memory location, string memory image, uint votecount) public {\r\n        require(petId >= 0 && petId < count);                 // Check if petId is valid.\r\n        pets[petId].name = name;                             // Update name.\r\n        pets[petId].breed = breed;                           // Update breed.\r\n        pets[petId].age = age;                               // Update age.\r\n        pets[petId].location = location;                     // Update location.\r\n        pets[petId].picture = image;                         // Update picture URL.\r\n        pets[petId].votes = votecount;\r\n    }\r\n\r\n// Constructor to initialize the contract with some default pets.\r\n    constructor () public {\r\n        address default_address = address(0);\r\n        count = 16;\r\n        pets.push(Pet(0, \"Frieda\", \"Scottish Terrier\", 3, \"Lisco, Alabama\", \"images/scottish-terrier.jpeg\", default_address, 0));\r\n        pets.push(Pet(1, \"Gina\", \"Scottish Terrier\", 3, \"Tooleville, West Virginia\", \"images/scottish-terrier.jpeg\", default_address, 0));\r\n        pets.push(Pet(2, \"Collins\", \"French Bulldog\", 2, \"Freeburn, Idaho\", \"images/french-bulldog.jpeg\", default_address, 0));\r\n        pets.push(Pet(3, \"Melissa\", \"Boxer\", 2, \"Camas, Pennsylvania\", \"images/boxer.jpeg\", default_address, 0));\r\n        pets.push(Pet(4, \"Jeanine\", \"French Bulldog\", 2, \"Gerber, South Dakota\", \"images/french-bulldog.jpeg\", default_address, 0));\r\n        pets.push(Pet(5, \"Elvia\", \"French Bulldog\", 3, \"Innsbrook, Illinois\", \"images/french-bulldog.jpeg\", default_address, 0));\r\n        pets.push(Pet(6, \"Latisha\", \"Golden Retriever\", 3, \"Soudan, Louisiana\", \"images/golden-retriever.jpeg\", default_address, 0));\r\n        pets.push(Pet(7, \"Coleman\", \"Golden Retriever\", 3, \"Jacksonwald, Palau\", \"images/golden-retriever.jpeg\", default_address, 0));\r\n        pets.push(Pet(8, \"Nichole\", \"French Bulldog\", 2, \"Honolulu, Hawaii\", \"images/french-bulldog.jpeg\", default_address, 0));\r\n        pets.push(Pet(9, \"Fran\", \"Boxer\", 3, \"Matheny, Utah\", \"images/boxer.jpeg\", default_address, 0));\r\n        pets.push(Pet(10, \"Leonor\", \"Boxer\", 2, \"Tyhee, Indiana\", \"images/boxer.jpeg\", default_address, 0));\r\n        pets.push(Pet(11, \"Dean\", \"Scottish Terrier\", 3, \"Windsor, Montana\", \"images/scottish-terrier.jpeg\", default_address, 0));\r\n        pets.push(Pet(12, \"Stevenson\", \"French Bulldog\", 3, \"Kingstowne, Nevada\", \"images/french-bulldog.jpeg\", default_address, 0));\r\n        pets.push(Pet(13, \"Kristina\", \"Golden Retriever\", 4, \"Sultana, Massachusetts\", \"images/golden-retriever.jpeg\", default_address, 0));\r\n        pets.push(Pet(14, \"Ethel\", \"Golden Retriever\", 2, \"Broadlands, Oregon\", \"images/golden-retriever.jpeg\", default_address, 0));\r\n        pets.push(Pet(15, \"Terry\", \"Golden Retriever\", 2, \"Dawn, Wisconsin\", \"images/golden-retriever.jpeg\", default_address, 0));\r\n    }\r\n\r\n}\r\n",
  "sourcePath": "C:\\Users\\amand\\OneDrive\\Desktop\\Study_UT\\2023summer\\APS1050\\Project\\project\\project\\contracts\\Adoption.sol",
  "compiler": {
    "name": "solc",
    "version": "0.5.17+commit.d19bba13.Emscripten.clang"
  },
  "schemaVersion": "3.4.15",
  "updatedAt": "2023-08-20T22:02:22.737Z",
  "networkType": "ethereum",
  "devdoc": {
    "methods": {}
  },
  "userdoc": {
    "methods": {}
  }
}